S1109200CE9000BDFFBBBD9123BD912D3F5D
S12292FFBDFFC4BD91239700BD912D960084102707CE9019BDFFC73FCE901DBDFFC73F7B
S12392CFBDFFC4BD91239700BD912DBD92F39600BD912DBD92F39600BD912DBD92F39600FA
S11092EFBD912D3F3696008810970032394E
S123927FBDFFC4BD91239700BD912DBD92739600BD912DBD929B9600BD912D3F369600846B
S108929FEF97003239D5
S120925FBDFFC4BD91239700BD912DBD92739600BD912D3F3696008A109700323971
S10B9100CE9000BDFFC73F043F
S123911FBD91233FB69018488914B790183936373C16BDFFB217BDFFB5863ABDFFB8862012
S123913FBDFFB8BDFFB8BDFFB8CE00088C0000270B8630588900BDFFB80920F0BDFFC43840
S106915F3332396B
S12390002F494E464F524D4154494F4E2041424F555420594F552F0400594553044E4F0456
S9030000FC
