S12390003D3D3D3D3D3D3D3D3D3D3D3D3D3D3D3D3D3D3D3D3D3D3D3D3D3D3D3D3D3D3D3DAC
S12390203D3D3D3D3D0A4C4142204F4E205553494E47205441424C45530A0A4E414D453A75
S1239040205F5F5F5F5F5F5F5F5F5F5F5F5F5F5F5F5F5F5F5F5F0A544849532050524F4787
S123906052414D20495320414E20494E46494E495445204C4F4F50210A48495420544845C0
S123908020524553455420425554544F4E20544F20515549540A3D3D3D3D3D3D3D3D3D3D9B
S12390A03D3D3D3D3D3D3D3D3D3D3D3D3D3D3D3D3D3D3D3D3D3D3D3D3D3D3D0A0A0A0430EB
S10C90C0313233343536373839C6
S1239100CE9000BDFFC7C60AF790C9F690C95AF790C92705BD911A20F23FBDFFAC4D27FA96
S1239120CE90BFC60BBD912E24F0BDFFB839373C5D2708A1002708085A20F50C3833390DFD
S106914038333984
S9030000FC
