S12390003D3D3D3D3D3D3D3D3D3D3D3D3D3D3D3D3D3D3D3D3D3D3D3D3D3D3D3D3D3D3D3DAC
S12390203D3D3D3D3D0A4C4142204F4E205553494E47205441424C45530A0A4E414D453A75
S1239040205F5F5F5F5F5F5F5F5F5F5F5F5F5F5F5F5F5F5F5F5F0A544849532050524F4787
S123906052414D20495320414E20494E46494E495445204C4F4F50210A48495420544845C0
S123908020524553455420425554544F4E20544F20515549542F0A3D3D3D3D3D3D3D3D3DA9
S12390A03D3D3D3D3D3D3D3D3D3D3D3D3D3D3D3D3D3D3D3D3D3D3D3D3D3D3D3D0A0A0A04DE
S12390C04953204120564F57454C0A044953204E4F54204120564F57454C0A0420414E4418
S12390E02049532053594D4D4554524943414C0A0420414E44204953204E4F542053594D5F
S12391004D4554524943414C0A044148494D4F545556575859696D6E6F75767778796165AB
S10B9120696F754145494F5583
S1239200CE9000BDFFC7BDFFCDCE911EC60ABD923C2519CE90CCBDFFCA0CCE910AC614BD0E
S123922092512510CE90F1BDFFCA20DACE90C0BDFFCA20E5CE90DCBDFFCA20CA373C5D27F9
S123924008A1002708085A20F50C3833390D383339373C5D2708A1002708085A20F50C38D0
S109926033390D383339E7
S9030000FC
